:060000000C94A0000C941A
:1000060000000C9400000C9400000C9400000C946A
:1000160000000C9400000C9400000C9400000C945A
:1000260000000C9400000C9400000C9400000C944A
:1000360000000C9400000C9400000C9400000C943A
:1000460000000C9400000C9400000C9400000000CA
:10005600010037383923456E746572205061737319
:10006600776F72643A200031003200330034003575
:100076000036003700380039002A003000230064BB
:100086006F6F72206973206F70656E65640077729A
:100096006F6E672070617373776F72642100456EAF
:1000A60074657220616E6F746865723A00456E748D
:1000B60065722050617373776F72643A000080C076
:1000C6000400040054000400CB0258001100600232
:1000D6005C00020071026D00020073026F000200F4
:1000E6007502710002007702730002007902750042
:1000F60002007B02770002007D02790002007F0287
:100106007B00020081027D00020083027F00020064
:10011600850281000200870283000F0089028500A4
:100126001000980294000F00A802A4001000B70265
:10013600B3000200CF02C4000000F894EE27ECBB27
:10014600F1E0FBBFEBBFE5BF8DE0A2E0BB27ED937F
:100156008A95E9F780E098E0A0E6ED930197E9F744
:10016600E6ECF0E085919591009761F0A591B59147
:1001760005901590BF01F00105900D920197E1F7EA
:10018600FB01F0CFEFE5EDBFE8E0EEBFC0E6D2E061
:100196000C94CD00E0E0EABBEBBBE7BBE8BBE4BBFD
:1001A600E5BBE1BBE2BBE3BFE2BFECBFEFBDEEBD2B
:1001B600EDBDECBDE7BDE6BDEBBDEABDE9BDE8BD05
:1001C600E2BDE5BDE4BDE3BDE9BFE5BFE4BFEAB915
:1001D600E0E8E8B9E0E0E0BFE6B9EDB9E6BFEFEF89
:1001E600EABBE7BBE4BBE0E0E8BBEFE0E1BBE0EF86
:1001F600E2BBA0E162D1A0E6B2E04ED1E0EFE2BB05
:1002060090B2E91529F006D02DD04DD06BD089D00B
:10021600F5CFFFCFEEEF79D1849908C07BD1A1E766
:10022600B2E03AD1E1E079D1E1E37DD185990FC021
:1002360071D1A3E7B2E07FD1E2E3EC93E2E0E8BB61
:10024600F20131962F01A6E4B0E00E94B902869928
:1002560008C060D1A5E7B2E01FD1E4E05ED1E3E3D8
:1002660062D15CC0EDEF51D1849908C053D1A7E7A4
:10027600B2E012D1E8E051D1E4E355D1859908C046
:1002860049D1A9E7B2E008D1E0E147D1E5E34BD196
:10029600869908C03FD1ABE7B2E0FED0E0E23DD19F
:1002A600E6E341D13BC0EBEF30D1849908C032D1AF
:1002B600ADE7B2E0F1D0E0E430D1E7E334D185999F
:1002C60008C028D1AFE7B2E0E7D0E0E826D1E8E3FE
:1002D6002AD1869906C01ED1A1E8B2E02CD1E9E365
:1002E60022D11CC0E7EF11D1849906C013D1A3E82F
:1002F600B2E021D1EAE217D1859908C00BD1A5E871
:10030600B2E0CAD0E0E009D1E0E30DD1869906C09B
:1003160001D1A7E8B2E00FD1E3E205D1E0EF9E2ECE
:100326000895E3E0F0E0E415F5050CF044C02297EB
:10033600E0E0E883E983A881B9811497A4F4E88111
:10034600F981E953FD4FA081E881F981E553FD4F1D
:10035600E081EA1711F4660C771CE881F981319681
:10036600E883F983E8CFEDD031F478D0A9E8B2E09C
:1003760093D022D01FC0E5D029F0E4E0F0E0E415E8
:10038600F50509F00CC06AD0A8E9B2E085D026D000
:1003960065D0A8EAB2E080D04424552408C0D1D064
:1003A60049F05CD044245524A7EBB2E075D0E1E0D7
:1003B600F0E03F01229608951A930A9300E010E0B8
:1003C6000A30E0E01E074CF4EAEAE8BBBFD0E5E5F8
:1003D600E8BBBCD00F5F1F4FF3CF0FC01A930A9331
:1003E60000E010E00A30E0E01E073CF4A89AAED028
:1003F600A898ACD00F5F1F4FF5CF099119910895BA
:10040600AA93EBB3E07FAE2FE881E295EF70EA2B7B
:10041600EBBB8DE08A95F1F7DE9A8DE08A95F1F7D0
:10042600DE988DE08A95F1F76EC0AA93A881E8DF81
:10043600E881E295E883A881E3DF85E88A95F1F70C
:1004460062C0AA93E881F0E0E153FD4FE081A98103
:10045600AE0FEBDF8980B88022960895A2E07AD0AD
:10046600ACE0E3DFA1E076D0E0E0BE2E8E2E08956C
:10047600AA93A881AA3011F08A1440F0E0E0EA932A
:10048600B394AB2DDEDFA881AA30E9F18394DC9A20
:10049600A881CBDFDC9837C0BA93AA931A93A981B7
:1004A600BA81ED91A983BA831E2FE03019F0A12FEE
:1004B600DFDFF5CF188123960895AA93EAB3EF609C
:1004C600EABBD69AD49AD59ADE98DC98DD98A880AD
:1004D600E881E058E093D102E881E054E093D2024B
:1004E60035D03DD03CD03BD0A0E28ADF88EC90E00E
:1004F6000197F1F7A8E299DFA4E097DFA5E895DF79
:10050600A6E093DFABDF21960895E2BB8BE18A95E7
:10051600F1F708954A92A2E094CFE8BBA7ECB2E0C7
:10052600A40DB51D0895EC93F20131962F01A6E4B2
:10053600B0E00C94B902B0DFA7ECB2E0A40DB51D93
:100546000895E0E1F0E0E615F7050895A4E1B0E0CE
:100556000C94B9026ADFA3E0B0E00C94B902A0E300
:100566004FDF88EC90E00197F1F70895109639F087
:1005760080ED97E00197F1F7A8951197C9F70895CF
:00000001FF
